:100000000C942A000C94611D0C948E1D0C94BB1D45
:100010000C9447000C9404360C9447000C94470051
:100020000C9447000C9447000C9447000C947735CF
:100030000C9447000C9447000C9447000C94470024
:100040000C9447000C9447000C9447000C94470014
:100050000C94470011241FBECFE5D8E0DEBFCDBF12
:1000600012E0A0E6B0E0E6E4F5E702C005900D92EC
:10007000AA30B107D9F712E0AAE0B2E001C01D92A0
:10008000AA36B107E1F70E94D9390C94A13A0C9431
:100090000000A0E3B0E0EFE4F0E00C946A3AA8E0DE
:1000A0004E010894811C911CF401BA2F1192BA954B
:1000B000E9F729833A834B835C836D837E838F8347
:1000C0009887CE010996FC011192AA95E9F7A986B5
:1000D000BA86CB86DC86ED86FE860F87188B298153
:1000E0003A814B815C812DA73EA74FA758AB790180
:1000F0008A018FEF9FEFA0E0B0E0E822F9220A2307
:100100001B231A014424552429853A854B855C8597
:1001100029A73AA74BA75CA759016A01A822B922CF
:10012000CA22DB223A0188249924C601B501A8011C
:1001300097010E94FA396DA37EA38FA398A7C401EB
:10014000B3010E94FA3969A37AA38BA39CA3C601C9
:10015000B501A20191010E94FA397B018C01C40111
:10016000B3010E94FA395B016C0189A19AA1ABA18C
:10017000BCA18E0D9F1DA01FB11F89A39AA3ABA385
:10018000BCA32DA13EA14FA158A5CA01AA27BB27F8
:1001900029A13AA14BA15CA1280F391F4A1F5B1F5F
:1001A00029A33AA34BA35CA32E153F054007510793
:1001B00040F480E090E0A1E0B0E0A80EB91ECA1EB5
:1001C000DB1E89A19AA1ABA1BCA19D0144275527A3
:1001D0002A0D3B1D4C1D5D1D2D8F3E8F4F8F58A34B
:1001E0006C01BB24AA248DA19EA1AFA1B8A5A070CB
:1001F000B070A80EB91ECA1EDB1EA98EBA8ECB8E99
:10020000DC8E9A8C8B8C7C8C9E8D6F8D78A1FE0100
:10021000719688E0DF011D928A95E9F72D8B9E8B00
:100220006F8B788F2D853E854F8558896DA57EA56E
:100230008FA598A90E94FA397B018C012D813E81FE
:100240004F81588569A57AA58BA59CA50E94FA398E
:10025000E60EF71E081F191F6D897E898F89988DFC
:100260006E0D7F1D801F911F6D8B7E8B8F8B988FE6
:10027000EE892A2D392D482D572D7E2F8F89988D67
:10028000E096E2E10C94863AEF92FF920F93DF93AF
:10029000CF93CDB7DEB760970FB6F894DEBF0FBE31
:1002A000CDBFA82F002309F461C07E010894E11C92
:1002B000F11C88E0F70111928A95E9F729833A83C6
:1002C0004B835C836D837E83AF83988780E2801B42
:1002D000E82FFF27E7FDF09549815A816B817C81EA
:1002E000181684F019861A861B861C86882799277B
:1002F0008E1B9F0B04C0440F551F661F771F8A95E6
:10030000D2F728C0202F332727FD3095DB01CA0103
:10031000022E04C0880F991FAA1FBB1F0A94D2F790
:1003200089879A87AB87BC8704C076956795579570
:100330004795EA95D2F78D819E81AF81B88504C03B
:10034000880F991FAA1FBB1F2A95D2F7482B592B3C
:100350006A2B7B2B4D875E876F87788B29853A8543
:100360004B855C856D857E85AF8598898A2F6096E3
:100370000FB6F894DEBF0FBECDBFCF91DF910F91C6
:10038000FF90EF900895EF92FF920F931F937B01E0
:100390008C0120E030E040E05FE40E9430138823CD
:1003A0008CF0C801B70120E030E040E05FE40E943B
:1003B000FC100E94EE139B01AC01205030404040E5
:1003C000504806C0C801B7010E94EE139B01AC0162
:1003D000B901CA011F910F91FF90EF900895A2E01B
:1003E000B0E0E5EFF1E00C946A3A122FB32EA42EA0
:1003F000952E862E372E282E9A83C22ED32EE42EAB
:10040000F52EA701960160E070E080E090E02117F2
:10041000A1F43B1591F44A1581F4591571F468154E
:1004200061F4731551F4821541F4AA819A1729F4E5
:10043000C701B6010E944214AAC0212F3B2D4A2DAC
:10044000592D682D732D822D9A8100E20E94BB14D4
:10045000C901DA018030E0E09E07E1E0AE07E0E0AC
:10046000BE0780F48F3F9105A105B10531F028F05A
:1004700028E030E040E050E016C020E030E040E00E
:1004800050E011C08030F0E09F07F0E0AF07F1E0EE
:10049000BF0728F028E130E040E050E004C020E150
:1004A00030E040E050E0022E04C0B695A795979545
:1004B00087950A94D2F7FC01E250FF4F8081290111
:1004C0003A01480E511C611C711C4982212F3B2DA1
:1004D0004A2D592D682D732D822D9A81042D0E944D
:1004E000BB14C901DA014C015D0180E290E084197E
:1004F000950904C0CC0CDD1CEE1CFF1C8A95D2F7BC
:10050000C114D104E104F10441F081E090E0A0E0E5
:10051000B0E0882A992AAA2ABB2A90E249165104F7
:100520006104710459F40F2EF0E0EF2EF0E0FF2E7D
:10053000F0E80F2FFFE41F2FF02D21C0AFE14A1686
:1005400051046104710459F40F2EF0E0EF2EF0E035
:10055000FF2EF0E00F2FFFE41F2FF02D10C061E001
:1005600070E080E090E0098004C0660F771F881F6C
:10057000991F0A94D2F70E9490137B018C01C50148
:10058000B4010E944214A80197010E945A112296B8
:10059000E2E10C94863AAEE5B0E0E1EDF2E00C94D5
:1005A0006A3AA8E04E010894811C911CF4016A2E5D
:1005B00011926A94E9F729833A834B835C836D83B4
:1005C0007E838F839887CE010996FC011192AA95AC
:1005D000E9F7A986BA86CB86DC86ED86FE860F878C
:1005E000188B29843A844B845C84ED84FE840F85C7
:1005F000188969807A808B809C806DA67EA68FA6E4
:1006000098AA6D807E808F809884E114F1040105A2
:10061000110509F0B3C3621473048404950408F04F
:100620003DC100E0201600E0300601E0400600E099
:10063000500688F41FEF211631044104510439F0AB
:1006400030F048E0E42EF12C012D112D18C0EE24DD
:10065000FF24870114C020E0221620E0320620E0AB
:10066000420621E0520630F038E1E32EF12C012D54
:10067000112D05C020E1E22EF12C012D112DD2010A
:10068000C1010E2C04C0B695A795979587950A943D
:10069000D2F782509F4FDC012C9180E290E0A0E0E5
:1006A000B0E08E199F09A00BB10B7C018D01E21AFD
:1006B000F10801091109E114F10401051105A1F185
:1006C0000E2C04C0220C331C441C551C0A94D2F777
:1006D000A40193010E2C04C0220F331F441F551F89
:1006E0000A94D2F780E290E08E199F096DA47EA44F
:1006F0008FA498A804C096948794779467948A9559
:10070000D2F7622A732A842A952AADA4BEA4CFA464
:10071000D8A804C0AA0CBB1CCC1CDD1CEA94D2F7E0
:10072000ADA6BEA6CFA6D8AA6201EE24FF24CDAA0C
:10073000DEAAEFAAF8AE920181012070307009AFF5
:100740001AAF2BAF3CAFC401B301A70196010E94C1
:10075000483A7B018C01C401B3012DA93EA94FA9E0
:1007600058AD0E94483AC901DA013C014D01C4016B
:10077000B30129AD3AAD4BAD5CAD0E94FA399B0196
:10078000AC018701FF24EE24ADA4BEA4CFA4D8A859
:10079000C601AA27BB2757016801A82AB92ACA2A75
:1007A000DB2AA216B306C406D506E0F40894610855
:1007B000710881089108A20CB31CC41CD51CA2149A
:1007C000B304C404D50470F0A216B306C406D5065B
:1007D00048F408946108710881089108A20CB31CC0
:1007E000C41CD51CA21AB30AC40AD50AC601B50195
:1007F0002DA93EA94FA958AD0E94483A7B018C0112
:10080000C601B5012DA93EA94FA958AD0E94483A8D
:10081000C901DA015C016D01C601B50129AD3AAD2E
:100820004BAD5CAD0E94FA399B01AC018701FF24FE
:10083000EE248DA59EA5AFA5B8A9A070B070E82A3A
:10084000F92A0A2B1B2BE216F30604071507C0F43E
:100850000894A108B108C108D108E20CF31C041DDA
:10086000151DE214F3040405150550F0E216F30615
:100870000407150728F40894A108B108C108D10895
:10088000D3019927882786017501E82AF92A0A2BBE
:100890001B2BE9AAFAAA0BAB1CABCFC42114310461
:1008A0004104510471F461E070E080E090E020E0E8
:1008B00030E040E050E00E94483AC901DA011C01F2
:1008C0002D0100E0201600E0300601E0400600E0C7
:1008D000500688F41FEF211631044104510431F011
:1008E00028F048E050E060E070E017C040E050E0E1
:1008F00060E070E012C020E0221620E0320620E026
:10090000420621E0520628F048E150E060E070E045
:1009100004C040E150E060E070E0D201C101042E6B
:1009200004C0B695A795979587950A94D2F78250FB
:100930009F4FDC012C91E0E2EE2EF12C012D112DC8
:10094000D801C701841B950BA60BB70B821B91091D
:10095000A109B1090097A105B10561F46401530132
:10096000A218B308C408D50831E0632E712C812C7D
:10097000912C1EC16F968FAF6F97082E04C0220C6A
:10098000331C441C551C0A94D2F7EE2DE81B64015D
:1009900053010E2E04C0D694C794B794A7940A941A
:1009A000D2F7A40193016F960FAC6F9704C0220F8A
:1009B000331F441F551F0A94D2F76DA47EA48FA441
:1009C00098A80E2E04C096948794779467940A94FE
:1009D000D2F784017301E22AF32A042B152BE9A62E
:1009E000FAA60BA71CA73201882499249201810141
:1009F0002070307021960CAF1DAF2EAF3FAF219706
:100A0000C601B501A40193010E94483A7B018C0103
:100A1000C601B501A40193010E94483AC901DA0157
:100A200025968CAF9DAFAEAFBFAF2597BC01CD0172
:100A300021962CAD3DAD4EAD5FAD21970E94FA39A8
:100A40009B01AC018701FF24EE24A9A4BAA4CBA486
:100A5000DCA4C601AA27BB275C016D01AE28BF2814
:100A6000C02AD12AA216B306C406D50660F525967B
:100A70006CAD7DAD8EAD9FAD2597615070408040CF
:100A8000904025966CAF7DAF8EAF9FAF2597A20C9F
:100A9000B31CC41CD51CA214B304C404D50498F020
:100AA000A216B306C406D50670F4615070408040AB
:100AB000904025966CAF7DAF8EAF9FAF2597A20C6F
:100AC000B31CC41CD51CA21AB30AC40AD50AC60199
:100AD000B501A40193010E94483A7B018C01C60133
:100AE000B501A40193010E94483AC901DA013C0111
:100AF0004D01C401B30121962CAD3DAD4EAD5FADAE
:100B000021970E94FA399B01AC018701FF24EE2452
:100B100089A59AA5ABA5BCA5A070B07057016801C6
:100B2000A82AB92ACA2ADB2AA216B306C406D50601
:100B3000E0F408946108710881089108A20CB31CC4
:100B4000C41CD51CA214B304C404D50470F0A216AE
:100B5000B306C406D50648F40894610871088108F4
:100B60009108A20CB31CC41CD51C8DA59EA5AFA5D5
:100B7000B8A96F960FAC6F9704C0880F991FAA1F72
:100B8000BB1F0A94D2F78DA79EA7AFA7B8ABA21A36
:100B9000B30AC40AD50A2596ECACFDAC0EAD1FAD68
:100BA0002597D70199278827682A792A8A2A9B2A94
:100BB00082012227332729960CAF1DAF2EAF3FAFFE
:100BC0002997A2019101407050702D962CAF3DAF36
:100BD0004EAF5FAF2D97C601B50129962CAD3DAD47
:100BE0004EAD5FAD29970E94483A7B018C01C6014A
:100BF000B50129962CAD3DAD4EAD5FAD29970E9454
:100C0000483AC901DA0161968CAF9DAFAEAFBFAF74
:100C10006197BC01CD012D962CAD3DAD4EAD5FADC4
:100C20002D970E94FA399B01AC018701FF24EE2425
:100C3000ADA4BEA4CFA4D8A8C601AA27BB2757013C
:100C40006801A82AB92ACA2ADB2AA216B306C40652
:100C5000D50660F561966CAD7DAD8EAD9FAD6197AB
:100C6000615070408040904061966CAF7DAF8EAF18
:100C70009FAF6197A20CB31CC41CD51CA214B30473
:100C8000C404D50498F0A216B306C406D50670F4C1
:100C9000615070408040904061966CAF7DAF8EAFE8
:100CA0009FAF6197A20CB31CC41CD51CA21AB30A37
:100CB000C40AD50AC601B50129962CAD3DAD4EAD8D
:100CC0005FAD29970E94483A7B018C01C601B501AE
:100CD00029962CAD3DAD4EAD5FAD29970E94483AA7
:100CE000C901DA015C016D01C601B5012D962CAD7B
:100CF0003DAD4EAD5FAD2D970E94FA399B01AC0121
:100D00008701FF24EE248DA59EA5AFA5B8A9A070EC
:100D1000B070E82AF92A0A2B1B2BE216F306040707
:100D20001507C0F40894A108B108C108D108E20C65
:100D3000F31C041D151DE214F3040405150550F001
:100D4000E216F3060407150728F40894A108B10871
:100D5000C108D1086196ECACFDAC0EAD1FAD61973A
:100D6000D7019927882796018501082B192B2A2B53
:100D70003B2B09AB1AAB2BAB3CAB62C26E147F04AE
:100D80008006910608F451C220E0E21620E0F20647
:100D900021E0020720E0120788F43FEFE316F10498
:100DA0000105110531F028F048E050E060E070E006
:100DB00017C040E050E060E070E012C040E0E41690
:100DC00040E0F40640E0040741E0140728F048E161
:100DD00050E060E070E004C040E150E060E070E0AE
:100DE000D801C701042E04C0B695A795979587959D
:100DF0000A94D2F782509F4FDC012C9130E2A32E4F
:100E0000B12CC12CD12CD601C501841B950BA60B8E
:100E1000B70B821B9109A109B1090097A105B10582
:100E200089F4E614F7040805190508F4F2C16DA465
:100E30007EA48FA498A8621473048404950408F017
:100E4000E8C1F3C16E968FAF6E97082E04C0EE0C0A
:100E5000FF1C001F111F0A94D2F76A2D681BD201D4
:100E6000C101062E04C0B695A795979587950A945B
:100E7000D2F75C016D01AE28BF28C02AD12AADA2ED
:100E8000BEA2CFA2D8A6720161016E960FAC6E977A
:100E900004C0CC0CDD1CEE1CFF1C0A94D2F7C9A2C6
:100EA000DAA2EBA2FCA264015301062E04C0D69480
:100EB000C794B794A7940A94D2F7D401C3016E964D
:100EC0000FAC6E9704C0880F991FAA1FBB1F0A940E
:100ED000D2F7EDA4FEA40FA518A904C01695079596
:100EE000F794E7946A95D2F737014801682A792A7E
:100EF0008A2A9B2A6D8E7E8E8F8E98A2EDA0FEA0F0
:100F00000FA118A538018824992498018701207021
:100F1000307065960CAF1DAF2EAF3FAF6597C60121
:100F2000B501A40193010E94483A7B018C01C601DE
:100F3000B501A40193010E94483AC901DA011C01DC
:100F40002D01C201B10165962CAD3DAD4EAD5FAD39
:100F500065970E94FA399B01AC018701FF24EE24BA
:100F6000AD8CBE8CCF8CD8A0C601AA27BB27570159
:100F70006801A82AB92ACA2ADB2AA216B306C4061F
:100F8000D50600F508942108310841085108EDA064
:100F9000FEA00FA118A5AE0CBF1CC01ED11EAE1422
:100FA000BF04C006D10670F0A216B306C406D5066B
:100FB00048F408942108310841085108AE0CBF1CC0
:100FC000C01ED11EA21AB30AC40AD50AC601B501B1
:100FD000A40193010E94483A7B018C01C601B5012E
:100FE000A40193010E94483AC901DA013C014D0174
:100FF000C401B30165962CAD3DAD4EAD5FAD6597B7
:101000000E94FA399B01AC018701FF24EE248D8DEB
:101010009E8DAF8DB8A1A070B07057016801A82A4D
:10102000B92ACA2ADB2AA216B306C406D50600F5D9
:10103000089461087108810891086DA17EA18FA1B3
:1010400098A5A60EB71EC81ED91EA616B706C806B6
:10105000D90670F0A216B306C406D50648F4089463
:101060006108710881089108A60EB71EC81ED91E16
:10107000D601C501821B930BA40BB50B898F9A8FE8
:10108000AB8FBC8FD1019927882764015301A82A0F
:10109000B92ACA2ADB2AA9AABAAACBAADCAA86013B
:1010A00075012FEF3FEF40E050E0E222F3220423EE
:1010B0001523A601662777276D964CAF5DAF6EAFFF
:1010C0007FAF6D97A9A0BAA0CBA0DCA06FEF7FEF98
:1010D00080E090E0A622B722C822D92289A19AA155
:1010E000ABA1BCA11D0144245524C801B701A60130
:1010F00095010E94FA3969966CAF7DAF8EAF9FAFB4
:101100006997C801B701A20191010E94FA393B0118
:101110004C016D966CAD7DAD8EAD9FAD6D97A6010A
:1011200095010E94FA397B018C016D966CAD7DAD05
:101130008EAD9FAD6D97A20191010E94FA395B01BE
:101140006C01A8019701260D371D481D591D699690
:101150006CAC7DAC8EAC9FAC6997C401AA27BB2751
:10116000280F391F4A1F5B1F2E153F0540075107E7
:1011700048F4E12CF12C61E0062F112DAE0CBF1CC0
:10118000C01ED11ECA01AA27BB27BC01CD016A0D12
:101190007B1D8C1D9D1D698C7A8C8B8C9C8C66169E
:1011A00077068806990640F1661577058805990542
:1011B00009F043C0D9019927882769962CAD3DAD28
:1011C0004EAD5FAD699740705070820F931FA41FA2
:1011D000B51F2DA53EA54FA558A96E960FAC6E97CD
:1011E00004C0220F331F441F551F0A94D2F728173B
:1011F00039074A075B0708F509A91AA92BA93CA9D1
:10120000015010402040304009AB1AAB2BAB3CAB37
:1012100014C066247724430121E030E040E050E030
:1012200029AB3AAB4BAB5CAB0BC0662477244301D4
:1012300019AA1AAA1BAA1CAA03C066247724430170
:10124000FE01719688E0DF011D928A95E9F7A9A851
:10125000BAA8CBA8DCA8A98ABA8ACB8ADC8A6D8A0C
:101260007E8A8F8A988E29A93A894B895C89662D56
:101270007E898F89988DC25ADF4FE2E10C94863ABD
:10128000ABE5B0E0E6E4F9E00C946A3AA8E04E0180
:101290000894811C911CF4016A2E11926A94E9F75A
:1012A00029833A834B835C836D837E838F83988706
:1012B000CE010996FC011192AA95E9F7A986BA8692
:1012C000CB86DC86ED86FE860F87188B29843A84D0
:1012D0004B845C84AD84BE84CF84D88829813A81D4
:1012E0004B815C8169962FAF69976A963FAF6A9789
:1012F0006B964FAF6B976C965FAF6C976C966CACC0
:101300007DAC8EAC9FAC6C9769AA7AAA8BAA9CAA7A
:101310006D817E818F8198853B014C016DAA7EAAEB
:101320008FAA98AEA114B104C104D10409F004C37A
:10133000621473048404950408F000C100E02016D0
:1013400000E0300601E0400600E0500688F41FEFA0
:10135000211631044104510439F030F088E0E82EC0
:10136000F12C012D112D18C0EE24FF24870114C08B
:1013700040E0241640E0340640E0440641E05406D4
:1013800030F0B8E1EB2EF12C012D112D05C0A0E1BC
:10139000EA2EF12C012D112DD201C1010E2C04C019
:1013A000B695A795979587950A94D2F782509F4F47
:1013B000DC012C9180E290E0A0E0B0E08E199F0962
:1013C000A00BB10B5C016D01A21AB108C108D108D4
:1013D000A9AEBAAECBAEDCAEA114B104C104D10447
:1013E00009F43FC069AD062E04C0220C331C441C16
:1013F000551C0A94D2F7A4019301062E04C0220FB3
:10140000331F441F551F0A94D2F780E290E08A19D7
:101410009B096C96CCACDDACEEACFFAC6C9704C019
:10142000F694E794D794C7948A95D2F7870176010A
:10143000E22AF32A042B152BEDAAFEAA0FAB18AF54
:101440006C968CAD9DADAEADBFAD6C9704C0880FF2
:10145000991FAA1FBB1F6A95D2F789AB9AABABAB9A
:10146000BCAB320188249924B201A1016070707074
:1014700021964CAF5DAF6EAF7FAF21976DA97EA96E
:101480008FA998ADA40193010E94483A7B018C0179
:101490006DA97EA98FA998ADA40193010E94483A35
:1014A000CA01B90121962CAD3DAD4EAD5FAD21977E
:1014B0000E94FA399B01AC018701FF24EE24A9A800
:1014C000BAA8CBA8DCA8C601AA27BB275701680188
:1014D000A82AB92ACA2ADB2AA216B306C406D50648
:1014E00090F4A20CB31CC41CD51CA214B304C404F5
:1014F000D50448F0A216B306C406D50620F4A20C03
:10150000B31CC41CD51CA21AB30AC40AD50AC6014E
:10151000B501A40193010E94483A7B018C01C601E8
:10152000B501A40193010E94483ACA01B90121966C
:101530002CAD3DAD4EAD5FAD2197BAC12114310444
:101540004104510471F461E070E080E090E020E03B
:1015500030E040E050E00E94483AC901DA011C0145
:101560002D0100E0201600E0300601E0400600E01A
:10157000500688F41FEF211631044104510439F05C
:1015800030F068E0E62EF12C012D112D18C0EE246C
:10159000FF24870114C040E0241640E0340640E0F8
:1015A000440641E0540630F058E1E52EF12C012DBF
:1015B000112D05C040E1E42EF12C012D112DD20199
:1015C000C1010E2C04C0B695A795979587950A94EE
:1015D000D2F782509F4FDC012C9130E2A32EB12C28
:1015E000C12CD12CD601C5018E199F09A00BB10BBE
:1015F0007C018D01E21AF10801091109E9AEFAAE88
:101600000BAF1CAFE114F1040105110539F46401BD
:101610005301A218B308C408D508E2C0F9AC689613
:10162000FFAE68970F2C04C0220C331C441C551CC1
:101630000A94D2F78A2D8F1964015301082E04C031
:10164000D694C794B794A7940A94D2F7A4019301AF
:1016500004C0220F331F441F551FFA94D2F76C9613
:101660006CAC7DAC8EAC9FAC6C9704C096948794A8
:10167000779467948A95D2F784017301E22AF32A5A
:10168000042B152BEDA6FEA60FA718AB320188245C
:101690009924B201A1016070707025964CAF5DAFC6
:1016A0006EAF7FAF2597C601B501A40193010E94DB
:1016B000483A7B018C01C601B501A40193010E9447
:1016C000483ACA01B90125962CAD3DAD4EAD5FAD8E
:1016D00025970E94FA399B01AC018701FF24EE2473
:1016E000ADA4BEA4CFA4D8A8C601AA27BB275C017D
:1016F0006D01AE28BF28C02AD12AA216B306C4069F
:10170000D50690F4A20CB31CC41CD51CA214B304BF
:10171000C404D50448F0A216B306C406D50620F4C6
:10172000A20CB31CC41CD51CA21AB30AC40AD50A45
:10173000C601B501A40193010E94483A7B018C01C6
:10174000C601B501A40193010E94483ACA01B9013A
:1017500025962CAD3DAD4EAD5FAD25970E94FA3973
:101760009B01AC018701FF24EE248DA59EA5AFA5AA
:10177000B8A9A070B07057016801A82AB92ACA2A6E
:10178000DB2AA216B306C406D50690F4A20CB31C3D
:10179000C41CD51CA214B304C404D50448F0A2167A
:1017A000B306C406D50620F4A20CB31CC41CD51C79
:1017B0006C96ECACFDAC0EAD1FAD6C9768960FACA3
:1017C000689704C0EE0CFF1C001F111F0A94D2F78B
:1017D000E9AAFAAA0BAB1CABA21AB30AC40AD50A2F
:1017E000320188249924B201A10160707070299699
:1017F0004CAF5DAF6EAF7FAF2997C601B501A401B5
:1018000093010E94483A7B018C01C601B501A401F5
:1018100093010E94483ACA01B90129962CAD3DAD09
:101820004EAD5FAD29970E94FA399B01AC0187014B
:10183000FF24EE24A9A8BAA8CBA8DCA8C601AA2731
:10184000BB2757016801A82AB92ACA2ADB2AA2168F
:10185000B306C406D50690F4A20CB31CC41CD51C58
:10186000A214B304C404D50448F0A216B306C406F7
:10187000D50620F4A20CB31CC41CD51CA21AB30AB2
:10188000C40AD50AC601B501A40193010E94483AD1
:101890007B018C01C601B501A40193010E94483A65
:1018A000CA01B90129962CAD3DAD4EAD5FAD29976A
:1018B0000E94FA399B01AC018701FF24EE2489A91B
:1018C0009AA9ABA9BCA9A070B070E82AF92A0A2B82
:1018D0001B2BE216F3060407150790F4E20CF31C29
:1018E000041D151DE214F3040405150548F0E21665
:1018F000F3060407150720F4E20CF31C041D151D64
:10190000E21AF30A040B150BD801C70109AC04C095
:10191000B695A795979587950A94D2F7898B9A8B58
:10192000AB8BBC8B1D8A1E8A1F8A188E282F3A8982
:101930004B895C896D890CC36A147B048C049D04FB
:1019400008F409C300E0A01600E0B00601E0C006FC
:1019500000E0D00688F41FEFA116B104C104D10441
:1019600039F030F028E0E22EF12C012D112D18C0B5
:10197000EE24FF24870114C040E0A41640E0B40622
:1019800040E0C40641E0D40630F098E1E92EF12CA5
:10199000012D112D05C080E1E82EF12C012D112D16
:1019A000D601C5010E2C04C0B695A79597958795CD
:1019B0000A94D2F782509F4FDC012C9180E290E094
:1019C000A0E0B0E08E199F09A00BB10B821B91091A
:1019D000A109B1090097A105B10509F04FC0A614EE
:1019E000B704C804D90458F06C96ECACFDAC0EAD4D
:1019F0001FAD6C97E214F3040405150568F16C96AD
:101A0000ECACFDAC0EAD1FAD6C97E218F308040909
:101A10001509A40193012A193B094C095D09AA245F
:101A2000BB2465016C966CAD7DAD8EAD9FAD6C97A2
:101A30006E157F058007910728F4B1E0AB2EB12C1D
:101A4000C12CD12CDA01C9018A199B09AC09BD0945
:101A50008DAB9EABAFABB8AFE98AFA8A0B8B1C8B10
:101A60006DA87EA88FA898AC6D8A7E8A8F8A988E82
:101A70002E2D3A894B895C896DA96AC267968FAF12
:101A80006797A6019501082E04C0220F331F441F3B
:101A9000551F0A94D2F7A0E2AA2EA81A6696AFAEF6
:101AA0006697D201C10104C0B695A7959795879511
:101AB000AA94D2F76C017D01C22AD32AE42AF52A1E
:101AC000C9A6DAA6EBA6FCA68201710167960FAC47
:101AD000679704C0EE0CFF1C001F111F0A94D2F779
:101AE000EDA2FEA20FA318A76401530166960FACE6
:101AF000669704C0D694C794B794A7940A94D2F773
:101B0000A401930167960FAC679704C0220F331F9F
:101B1000441F551F0A94D2F76C968CAD9DADAEADA7
:101B2000BFAD6C9766960FAC669704C0B695A79547
:101B3000979587950A94D2F73C014D01622A732A42
:101B4000842A952A69A27AA28BA29CA26C96ECACFC
:101B5000FDAC0EAD1FAD6C9767960FAC679704C0D8
:101B6000EE0CFF1C001F111F0A94D2F7ED8EFE8EA3
:101B70000F8F18A349A55AA56BA57CA53B01882406
:101B80009924607070702D964CAF5DAF6EAF7FAFD3
:101B90002D97C601B501A40193010E94483A7B012B
:101BA0008C01C601B501A40193010E94483AC90104
:101BB000DA011C012D01C201B1012D962CAD3DAD04
:101BC0004EAD5FAD2D970E94FA399B01AC018701A4
:101BD000FF24EE24A9A0BAA0CBA0DCA0C601AA27AE
:101BE000BB2757016801A82AB92ACA2ADB2AA216EC
:101BF000B306C406D50600F508942108310841084B
:101C00005108E9A4FAA40BA51CA5AE0CBF1CC01E6C
:101C1000D11EAE14BF04C006D10670F0A216B306E2
:101C2000C406D50648F40894210831084108510833
:101C3000AE0CBF1CC01ED11EA21AB30AC40AD50A1C
:101C4000C601B501A40193010E94483A7B018C01B1
:101C5000C601B501A40193010E94483AC901DA0105
:101C60003C014D01C401B3012D962CAD3DAD4EADEF
:101C70005FAD2D970E94FA399B01AC018701FF24CB
:101C8000EE2489A19AA1ABA1BCA1A070B0705701AC
:101C90006801A82AB92ACA2ADB2AA216B306C406F2
:101CA000D50600F50894610871088108910869A5B6
:101CB0007AA58BA59CA5A60EB71EC81ED91EA61672
:101CC000B706C806D90670F0A216B306C406D50634
:101CD00048F408946108710881089108A60EB71E9F
:101CE000C81ED91ED601C501821B930BA40BB50BD0
:101CF000898F9A8FAB8FBC8FD10199278827840158
:101D00007301E82AF92A0A2B1B2B4FEFA42E4FEF61
:101D1000B42EC12CD12CAE20BF20C022D1227801FC
:101D2000002711276DA07EA08FA098A44FEF5FEF32
:101D300060E070E064227522862297228DA19EA128
:101D4000AFA1B8A5BD018827992765966CAF7DAF77
:101D50008EAF9FAF6597C601B501A40193010E94A4
:101D6000FA3961966CAF7DAF8EAF9FAF6197C601B8
:101D7000B50165962CAD3DAD4EAD5FAD65970E944A
:101D8000FA391B012C01C801B701A40193010E947B
:101D9000FA395B016C01C801B70165962CAD3DAD08
:101DA0004EAD5FAD65970E94FA397B018C01A601AB
:101DB0009501220D331D441D551D61966CAC7DAC03
:101DC0008EAC9FAC6197C401AA27BB27280F391F8F
:101DD0004A1F5B1F2A153B054C055D0548F4812C05
:101DE000912CE1E0AE2EB12CE80CF91C0A1D1B1D54
:101DF000CA01AA27BB2757016801A80EB91ECA1E2F
:101E0000DB1EA9013327222761968CAD9DADAEADB7
:101E1000BFAD6197A070B070280F391F4A1F5B1FBC
:101E2000E98CFA8C0B8D1C8DEA14FB040C051D0546
:101E300070F0AE14BF04C006D10669F56D8D7E8DBD
:101E40008F8D98A1621773078407950720F5DA0133
:101E5000C9016DA07EA08FA098A486199709A80932
:101E6000B909E9A4FAA40BA51CA5AE18BF08C00ABD
:101E7000D10AEE24FF248701281739074A075B0798
:101E800028F421E0E22EF12C012D112DAE18BF080F
:101E9000C00AD10A02C0DA01C9016D8C7E8C8F8C18
:101EA00098A0681A790A8A0A9B0A498D5A8D6B8D07
:101EB0007C8D4A195B096C097D095A016B0122244A
:101EC000332421016D8D7E8D8F8D98A16615770548
:101ED0008805990528F481E0282E312C412C512CBD
:101EE00086017501E218F30804091509A801970194
:101EF00066960FAC669704C0220F331F441F551F10
:101F00000A94D2F7D401C30167960FAC679704C057
:101F1000B695A795979587950A94D2F7282B392BD4
:101F20004A2B5B2B298B3A8B4B8B5C8B67960FACC8
:101F3000679704C016950795F794E7940A94D2F72B
:101F4000ED8AFE8A0F8B188F3A894B895C896E2D3A
:101F50007E898F89988DC55ADF4FE2E10C94863ACD
:101F6000A0E0B0E0E6EBFFE00C946A3ADC012B0164
:101F7000FA019C91923008F439C1EB0188818230DA
:101F800008F433C1943069F4843009F02FC11196FC
:101F90009C9111978981981709F428C1A6EFB0E0A8
:101FA00025C1843009F421C18230A9F4923009F0AE
:101FB0001DC19A01AD0188E0EA010990AE01E90175
:101FC00009929E018150C1F7E201898111969C918D
:101FD0008923818308C1923009F407C112962D909C
:101FE0003C901397EB018A819B811496AD90BD9034
:101FF000CD90DC901797EC80FD800E811F819101C0
:10200000281B390BB90137FF04C066277727621BED
:10201000730B603271050CF061C0121613066CF57B
:1020200037014801062E04C09694879477946794EC
:102030000A94D2F721E030E040E050E004C0220FE3
:10204000331F441F551F6A95D2F72150304040403E
:1020500050402E213F2140235123211531054105B8
:10206000510521F021E030E040E050E079018A01A3
:10207000E628F728082919293CC0232BD1F1260E80
:10208000371E35014601062E04C096948794779436
:1020900067940A94D2F721E030E040E050E004C0B9
:1020A000220F331F441F551F6A95D2F7215030402D
:1020B000404050402A213B214C215D212115310512
:1020C0004105510521F021E030E040E050E05901A8
:1020D0006A01A628B728C828D9280BC082159305FD
:1020E0002CF01C01AA24BB24650103C0EE24FF24AC
:1020F000870111969C91D20111968C91981709F441
:1021000045C0992339F0A80197012A193B094C09C8
:102110005D0906C0A60195012E193F09400B510B20
:1021200057FD08C01182338222822483358346837F
:1021300057831DC081E081833382228288279927BB
:10214000DC01821B930BA40BB50B84839583A683C0
:10215000B7830DC0220F331F441F551F24833583BF
:10216000468357838281938101979383828324815D
:10217000358146815781DA01C9010197A109B10969
:102180008F5F9F4FAF4FBF4328F30BC091833382C4
:102190002282EA0CFB1C0C1D1D1DE482F5820683C5
:1021A000178383E08083248135814681578157FFDF
:1021B0001AC0C901AA2797FDA095BA2F8170907007
:1021C000A070B0705695479537952795822B932B25
:1021D000A42BB52B84839583A683B78382819381B7
:1021E000019693838283DF0101C0D201CD01CDB777
:1021F000DEB7E2E10C94863AA0E2B0E0E2E0F1E181
:102200000C94763A69837A838B839C832D833E83F7
:102210004F835887E9E0EE2EF12CEC0EFD1ECE0127
:102220000196B7010E945E168E010F5E1F4FCE0110
:102230000596B8010E945E168A8991E089278A8BEB
:10224000C701B801AE01475E5F4F0E94B00F0E9408
:102250008915A096E6E00C94923AA0E2B0E0E3E3A0
:10226000F1E10C94763A69837A838B839C832D8386
:102270003E834F835887F9E0EF2EF12CEC0EFD1EC4
:10228000CE010196B7010E945E168E010F5E1F4FB0
:10229000CE010596B8010E945E16C701B801AE01D5
:1022A000475E5F4F0E94B00F0E948915A096E6E03E
:1022B0000C94923AA0E2B0E0E0E6F1E10C946A3AC4
:1022C00069837A838B839C832D833E834F835887D6
:1022D000CE010196BE01675F7F4F0E945E16CE0160
:1022E0000596BE016F5E7F4F0E945E169985923003
:1022F00088F089898230C8F0943019F4823051F422
:1023000004C0843029F4923081F486EF90E0C6C096
:10231000923049F420E09A858A89981321E02A872F
:10232000CE010996BBC0823049F420E09A858A89A3
:10233000981321E02A8BCE014196B0C02D843E84B3
:102340004F8458886D887E888F88988CEE24FF246F
:102350008701AA24BB24650140E050E060E070E002
:10236000E0E0F0E0C10181709070892BE9F0E60CAB
:10237000F71C081D191D9A01AB012A0D3B1D4C1DB0
:102380005D1D80E090E0A0E0B0E0E614F7040805F1
:10239000190520F481E090E0A0E0B0E0BA01A901C5
:1023A000480F591F6A1F7B1FAA0CBB1CCC1CDD1CCD
:1023B00097FE08C081E090E0A0E0B0E0A82AB92A2A
:1023C000CA2ADB2A3196E032F10549F0660C771C07
:1023D000881C991C5694479437942794C3CFFA8548
:1023E000EA892B893C898B859C85280F391F2E5FB4
:1023F0003F4F17C0CA0181709070892B61F016950C
:102400000795F794E79480E090E0A0E0B0E8E82A30
:10241000F92A0A2B1B2B76956795579547952F5FC1
:102420003F4F77FDE7CF0CC0440F551F661F771F46
:1024300017FD4160EE0CFF1C001F111F21503040A2
:10244000403090E0590790E0690790E4790760F325
:102450002B8F3C8FDB01CA018F779070A070B0701A
:1024600080349105A105B10561F447FD0AC0E1146E
:10247000F1040105110529F0405C5F4F6F4F7F4F5C
:1024800040781A8EFE1711F081E08A8F4D8F5E8F93
:102490006F8F78A383E0898FCE0149960E948915BA
:1024A000A096E2E10C94863AA8E1B0E0EAE5F2E118
:1024B0000C94723A69837A838B839C832D833E8349
:1024C0004F835887B9E0EB2EF12CEC0EFD1ECE01A8
:1024D0000196B7010E945E168E010F5E1F4FCE015E
:1024E0000596B8010E945E162985223008F47EC048
:1024F0003989323010F4B8017CC08A859A898927DD
:102500008A87243011F0223031F4231709F06EC08D
:1025100066EF70E06EC0343039F41D861E861F866B
:10252000188A1C861B8604C0323021F484E0898717
:10253000B7015FC02B853C858B899C89281B390B93
:102540003C872B87ED84FE840F851889AD88BE8873
:10255000CF88D88CEA14FB040C051D0540F4EE0C62
:10256000FF1C001F111F215030403C872B8720E0AB
:1025700030E040E050E080E090E0A0E0B0E460E0D7
:1025800070E0EA14FB040C051D0540F0282B392BE4
:102590004A2B5B2BEA18FB080C091D09B695A79579
:1025A00097958795EE0CFF1C001F111F6F5F7F4FE3
:1025B0006F31710531F7DA01C9018F779070A07022
:1025C000B07080349105A105B10561F427FD0AC002
:1025D000E114F1040105110529F0205C3F4F4F4F34
:1025E0005F4F20782D873E874F87588BBE01675FEE
:1025F0007F4FCB010E9489156896EAE00C948E3AD1
:10260000A8E1B0E0E6E0F3E10C94763A69837A83DE
:102610008B839C832D833E834F83588789E0E82EEC
:10262000F12CEC0EFD1ECE010196B7010E945E1644
:102630008E010F5E1F4FCE010596B8010E945E16F7
:102640008985823040F08989823028F0C701B8013D
:102650000E94D61601C08FEF6896E6E00C94923A7D
:10266000A8E1B0E0E6E3F3E10C94763A69837A837B
:102670008B839C832D833E834F83588789E0E82E8C
:10268000F12CEC0EFD1ECE010196B7010E945E16E4
:102690008E010F5E1F4FCE010596B8010E945E1697
:1026A0008985823040F08989823028F0C701B801DD
:1026B0000E94D61601C08FEF6896E6E00C94923A1D
:1026C000A8E1B0E0E6E6F3E10C94763A69837A8318
:1026D0008B839C832D833E834F83588789E0E82E2C
:1026E000F12CEC0EFD1ECE010196B7010E945E1684
:1026F0008E010F5E1F4FCE010596B8010E945E1637
:102700008985823040F08989823028F0C701B8017C
:102710000E94D61601C081E06896E6E00C94923AD9
:10272000A8E0B0E0E6E9F3E10C94733A9B01AC0158
:1027300083E08983DA01C9018827B7FD839599274A
:10274000AA27BB27B82E211531054105510519F4DB
:1027500082E089833AC08823A9F0203080E03807DE
:1027600080E0480780E8580729F460E070E080E0E6
:102770009FEC30C0EE24FF248701E21AF30A040B19
:10278000150B02C079018A018EE1C82ED12CDC82A2
:10279000CB82ED82FE820F831887C801B7010E94A9
:1027A0003A1501971816190684F4082E04C0EE0C89
:1027B000FF1C001F111F0A94D2F7ED82FE820F83C7
:1027C0001887C81AD90ADC82CB82BA82CE01019658
:1027D0000E9489152896E9E00C948F3AACE0B0E0AD
:1027E000E4EFF3E10C947A3A69837A838B839C83D8
:1027F000CE010196BE016B5F7F4F0E945E168D81F8
:10280000823061F1823050F1843021F48E8188234E
:1028100051F12EC02F81388537FD20C06E812F31B8
:1028200031051CF06623F9F023C08EE190E0821B95
:10283000930B29853A854B855C8504C05695479551
:10284000379527958A95D2F76623B1F05095409534
:10285000309521953F4F4F4F5F4F0EC020E030E045
:1028600040E050E009C02FEF3FEF4FEF5FE704C0BB
:1028700020E030E040E050E8B901CA012C96E2E0E7
:102880000C94963AA8E0B0E0E8E4F4E10C94723AD3
:102890007B018C01611571058105910519F482E0B8
:1028A000898360C083E089838EE1C82ED12CDC82CD
:1028B000CB82ED82FE820F831887C801B7010E9488
:1028C0003A15FC013197F7FF3BC0222733272E1B17
:1028D0003F0B57016801022E04C0D694C794B794E9
:1028E000A7940A94D2F740E050E060E070E081E005
:1028F00090E0A0E0B0E004C0880F991FAA1FBB1FA2
:102900002A95D2F70197A109B1098E219F21A02311
:10291000B1230097A105B10521F041E050E060E04E
:1029200070E04A295B296C297D294D835E836F8382
:1029300078878EE190E08E1B9F0B9C838B8312C067
:10294000309781F00E2E04C0EE0CFF1C001F111FEB
:102950000A94D2F7ED82FE820F831887CE1ADF0A1F
:10296000DC82CB821A82CE0101960E9489152896BC
:10297000EAE00C948E3AEF92FF920F93DF93CF939D
:10298000CDB7DEB760970FB6F894DEBF0FBECDBFF0
:10299000A82F002309F461C07E010894E11CF11CFA
:1029A00088E0F70111928A95E9F729833A834B83EE
:1029B0005C836D837E83AF83988780E2801BE82FE2
:1029C000FF27E7FDF0954D815E816F8178851816B0
:1029D00084F01D861E861F86188A882799278E1BDD
:1029E0009F0B04C076956795579547958A95D2F7C2
:1029F00028C0202F332727FD3095DB01CA01022E86
:102A000004C0B695A795979587950A94D2F78D87B8
:102A10009E87AF87B88B04C0440F551F661F771F72
:102A2000EA95D2F789819A81AB81BC8104C0B695C1
:102A3000A795979587952A95D2F7482B592B6A2BFE
:102A40007B2B49875A876B877C8729853A854B85FD
:102A50005C856D857E85AF8598898A2F60960FB6D7
:102A6000F894DEBF0FBECDBFCF91DF910F91FF90E5
:102A7000EF900895EF92FF920F931F937B018C01CB
:102A800080E0E81680E0F80681E0080780E018079B
:102A900088F48FEFE816F1040105110531F028F0F4
:102AA00088E090E0A0E0B0E017C080E090E0A0E017
:102AB000B0E012C080E0E81680E0F80680E0080789
:102AC00081E0180728F088E190E0A0E0B0E004C0C1
:102AD00080E190E0A0E0B0E020E230E040E050E0B3
:102AE000281B390B4A0B5B0B04C016950795F7940E
:102AF000E7948A95D2F7F701E250FF4F8081281BB7
:102B0000310941095109C9011F910F91FF90EF90BF
:102B10000895DF92EF92FF920F931F93FC01E480E0
:102B2000F58006811781D1808081823048F480E071
:102B300090E0A0E1B0E0E82AF92A0A2B1B2BA5C0FF
:102B4000843009F49FC0823021F4EE24FF248701F1
:102B500005C0E114F1040105110519F4E0E0F0E00D
:102B600096C0628173819FEF623879070CF05BC079
:102B700022E83FEF261B370B2A3131052CF020E0ED
:102B800030E040E050E02AC0B801A701022E04C0A6
:102B900076956795579547950A94D2F781E090E02E
:102BA000A0E0B0E004C0880F991FAA1FBB1F2A95A0
:102BB000D2F70197A109B1098E219F21A023B1234A
:102BC0000097A105B10521F081E090E0A0E0B0E020
:102BD0009A01AB01282B392B4A2B5B2BDA01C90157
:102BE0008F779070A070B07080349105A105B10509
:102BF00039F427FF09C0205C3F4F4F4F5F4F04C09F
:102C0000215C3F4F4F4F5F4FE0E0F0E02030A0E00D
:102C10003A07A0E04A07A0E45A0710F0E1E0F0E02C
:102C200079018A0127C06038710564F5FB01E1581C
:102C3000FF4FD801C7018F779070A070B0708034BB
:102C40009105A105B10539F4E7FE0DC080E490E0DF
:102C5000A0E0B0E004C08FE390E0A0E0B0E0E80EB8
:102C6000F91E0A1F1B1F17FF05C016950795F7943D
:102C7000E794319687E016950795F794E7948A953F
:102C8000D1F705C0EE24FF248701EFEFF0E06E2FAF
:102C9000679566276795902F9F77D794DD24D79403
:102CA0008E2F8695492F462B582F5D29B701CA01D3
:102CB0001F910F91FF90EF90DF900895FC01DB01D1
:102CC000408151812281622F6F7770E0221F22277D
:102CD000221F9381892F880F822B282F30E0991F84
:102CE0009927991F11969C93119721153105A9F5E4
:102CF000411551056105710511F482E037C082E884
:102D00009FEF13969C938E9312979A01AB0167E005
:102D1000220F331F441F551F6A95D1F783E08C9310
:102D20000DC0220F331F441F551F12968D919C9189
:102D30001397019713969C938E931297203080E0FF
:102D4000380780E0480780E4580758F314962D931D
:102D50003D934D935C93179708952F3F310579F478
:102D6000411551056105710519F484E08C930895AE
:102D700064FF03C081E08C9312C01C9210C02F57D7
:102D8000304013963C932E93129783E08C9387E008
:102D9000440F551F661F771F8A95D1F770641496EC
:102DA0004D935D936D937C93179708951F93DC016A
:102DB000FB019C91923008F447C08081823008F476
:102DC00043C0943051F411961C91843099F581815F
:102DD000682F70E0611B71093FC0843021F0923090
:102DE00031F48230B9F18181882389F12DC01196A7
:102DF0001C9111978230F1F081811817D9F4129645
:102E00002D913C911397828193818217930794F0BF
:102E100028173907BCF014968D919D910D90BC91A7
:102E2000A02D2481358146815781281739074A070B
:102E30005B0718F4112341F00AC082179307A40717
:102E4000B50740F4112319F061E070E005C06FEFA1
:102E50007FEF02C060E070E0CB011F910895DF9327
:102E6000CF93CDB7DEB7E7E2F0E080E48083E6E21F
:102E7000F0E087E88083A7E2B0E0E7E2F0E080815D
:102E80008F7D8C93CF91DF9108952F923F924F9237
:102E90005F926F927F928F929F92AF92BF92CF92EA
:102EA000DF92EF92FF920F931F93DF93CF9300D0A7
:102EB000CDB7DEB78983A7E2B0E0E7E2F0E080813A
:102EC000807E8C93A7E2B0E0E7E2F0E08081982F6B
:102ED00089818F71892B8C93A6E2B0E0E6E2F0E065
:102EE000808180648C93A6E2B0E0E6E2F0E080812D
:102EF0008F7D8C93E6E2F0E08081A6E2B0E0E6E22E
:102F0000F0E0808180618C93E4E2F0E08081918147
:102F10005C01CC24DD24EE24FF2487012A2D3B2DE7
:102F20004C2D5D2D6E2D7F2D802F912F0F2EF8E8CB
:102F3000AF2EF02D0F2EF3E1BF2EF02DCC24DD248B
:102F4000EE24FF2400E010E00E944900222E332EE0
:102F5000442E552E662E772E882E992EA22CB32C19
:102F6000C42CD52CE62CF72C082D192D2A2D3B2D01
:102F70004C2D5D2D6E2D7F2D802F912FAA24AA948C
:102F80000F2EF3E0BF2EF02DCC24DD24EE24FF2401
:102F900000E010E00E94CB02A22EB32EC42ED52E4C
:102FA000E62EF72E082F192F2A2D3B2D4C2D5D2DA7
:102FB0006E2D7F2D802F912FC9010F900F90CF91F3
:102FC000DF911F910F91FF90EF90DF90CF90BF9016
:102FD000AF909F908F907F906F905F904F903F90B9
:102FE0002F900895DF93CF93CDB7DEB7A6E2B0E080
:102FF000E6E2F0E080818F778C93E7E2F0E01082E8
:103000000E941924A6E2B0E0E6E2F0E08081877F2A
:103010008C93CF91DF910895DF93CF93CDB7DEB737
:1030200083E060E041E00E94671883E061E041E0F6
:103030000E94671883E060E040E00E94A81983E0E6
:1030400061E040E00E94A819CF91DF910895DF93DD
:10305000CF9300D00F92CDB7DEB789838981282F17
:1030600030E03B832A838A819B8181309105A1F0E6
:103070002A813B8122303105D1F08A819B810097E2
:1030800001F583E060E040E00E94A81983E061E080
:1030900040E00E94A81915C083E060E040E00E9473
:1030A000A81983E061E041E00E94A8190AC083E00A
:1030B00060E041E00E94A81983E061E040E00E94E6
:1030C000A8190F900F900F90CF91DF910895DF9383
:1030D000CF93CDB7DEB727970FB6F894DEBF0FBEFC
:1030E000CDBF89836A834B838B81813009F06FC0A8
:1030F0008981282F30E03F832E838E819F8181300C
:10310000910549F12E813F81223031052CF48E81C9
:103110009F81009761F0D2C02E813F81223031051E
:1031200071F18E819F8183309105E9F1C7C0AAE3D7
:10313000B0E0EAE3F0E08081482F8A81282F30E078
:1031400081E090E0022E02C0880F991F0A94E2F7F6
:10315000842B8C93B3C0A7E3B0E0E7E3F0E0808179
:10316000482F8A81282F30E081E090E0022E02C0B3
:10317000880F991F0A94E2F7842B8C939FC0A4E3D5
:10318000B0E0E4E3F0E08081482F8A81282F30E02E
:1031900081E090E0022E02C0880F991F0A94E2F7A6
:1031A000842B8C938BC0A1E3B0E0E1E3F0E080815D
:1031B000482F8A81282F30E081E090E0022E02C063
:1031C000880F991F0A94E2F7842B8C9377C08B8128
:1031D000882309F073C08981282F30E03D832C8338
:1031E0008C819D818130910559F12C813D81223066
:1031F00031052CF48C819D81009769F05FC02C8192
:103200003D812230310589F18C819D81833091058A
:1032100009F440C053C0AAE3B0E0EAE3F0E08081E3
:10322000482F8A81282F30E081E090E0022E02C0F2
:10323000880F991F0A94E2F7809584238C933EC0EF
:10324000A7E3B0E0E7E3F0E08081482F8A81282FF0
:1032500030E081E090E0022E02C0880F991F0A94AE
:10326000E2F7809584238C9329C0A4E3B0E0E4E3E3
:10327000F0E08081482F8A81282F30E081E090E0C3
:10328000022E02C0880F991F0A94E2F780958423CA
:103290008C9314C0A1E3B0E0E1E3F0E08081482F1B
:1032A0008A81282F30E081E090E0022E02C0880F52
:1032B000991F0A94E2F7809584238C9327960FB682
:1032C000F894DEBF0FBECDBFCF91DF910895DF939D
:1032D000CF9300D000D0CDB7DEB789836A838981D0
:1032E000282F30E03C832B838B819C81813091059A
:1032F000D1F02B813C81223031052CF48B819C81D3
:10330000009761F01EC02B813C812230310581F095
:103310008B819C818330910581F013C0EAE3F0E05A
:103320008A8180830EC0E7E3F0E08A81808309C050
:10333000E4E3F0E08A81808304C0E1E3F0E08A8185
:1033400080830F900F900F900F90CF91DF91089591
:10335000DF93CF93CDB7DEB727970FB6F894DEBFD4
:103360000FBECDBF89836A834B838B81813009F087
:103370006FC08981282F30E03F832E838E819F810B
:103380008130910549F12E813F81223031052CF4A5
:103390008E819F81009761F0D2C02E813F812230C3
:1033A000310571F18E819F8183309105E9F1C7C0AC
:1033B000ABE3B0E0EBE3F0E08081482F8A81282F77
:1033C00030E081E090E0022E02C0880F991F0A943D
:1033D000E2F7842B8C93B3C0A8E3B0E0E8E3F0E01D
:1033E0008081482F8A81282F30E081E090E0022EF2
:1033F00002C0880F991F0A94E2F7842B8C939FC018
:10340000A5E3B0E0E5E3F0E08081482F8A81282F32
:1034100030E081E090E0022E02C0880F991F0A94EC
:10342000E2F7842B8C938BC0A2E3B0E0E2E3F0E000
:103430008081482F8A81282F30E081E090E0022EA1
:1034400002C0880F991F0A94E2F7842B8C9377C0EF
:103450008B81882309F073C08981282F30E03D8358
:103460002C838C819D818130910559F12C813D8186
:10347000223031052CF48C819D81009769F05FC06A
:103480002C813D812230310589F18C819D818330F1
:10349000910509F440C053C0ABE3B0E0EBE3F0E0CA
:1034A0008081482F8A81282F30E081E090E0022E31
:1034B00002C0880F991F0A94E2F7809584238C93A9
:1034C0003EC0A8E3B0E0E8E3F0E08081482F8A81C5
:1034D000282F30E081E090E0022E02C0880F991F73
:1034E0000A94E2F7809584238C9329C0A5E3B0E089
:1034F000E5E3F0E08081482F8A81282F30E081E0E9
:1035000090E0022E02C0880F991F0A94E2F780957E
:1035100084238C9314C0A2E3B0E0E2E3F0E0808166
:10352000482F8A81282F30E081E090E0022E02C0EF
:10353000880F991F0A94E2F7809584238C9327962D
:103540000FB6F894DEBF0FBECDBFCF91DF910895C7
:10355000DF93CF9300D000D0CDB7DEB789836A83E5
:103560008981282F30E03C832B838B819C818130A3
:103570009105D1F02B813C81223031052CF48B81D7
:103580009C81009761F01EC02B813C812230310567
:1035900081F08B819C818330910581F013C0EBE336
:1035A000F0E08A8180830EC0E8E3F0E08A818083C6
:1035B00009C0E5E3F0E08A81808304C0E2E3F0E043
:1035C0008A8180830F900F900F900F90CF91DF91A1
:1035D0000895DF93CF9300D000D0CDB7DEB78983B5
:1035E0006A838981282F30E03C832B838B819C81E7
:1035F0008130910549F12B813C81223031052CF439
:103600008B819C81009761F05AC02B813C812230D4
:10361000310571F18B819C8183309105E9F14FC0B7
:10362000ABE3B0E0EBE3F0E08081482F8A81282F04
:1036300030E081E090E0022E02C0880F991F0A94CA
:10364000E2F784278C933BC0A8E3B0E0E8E3F0E026
:103650008081482F8A81282F30E081E090E0022E7F
:1036600002C0880F991F0A94E2F784278C9327C021
:10367000A5E3B0E0E5E3F0E08081482F8A81282FC0
:1036800030E081E090E0022E02C0880F991F0A947A
:10369000E2F784278C9313C0A2E3B0E0E2E3F0E00A
:1036A0008081482F8A81282F30E081E090E0022E2F
:1036B00002C0880F991F0A94E2F784278C930F9019
:1036C0000F900F900F90CF91DF910895DF93CF93DC
:1036D00000D000D000D0CDB7DEB789836A8389815E
:1036E000282F30E03D832C834C815D814130510592
:1036F00049F18C819D818230910534F42C813D818A
:103700002115310561F057C04C815D814230510572
:1037100061F18C819D8183309105D1F14CC0E9E349
:10372000F0E08081282F30E08A81882F90E0A90185
:1037300002C0559547958A95E2F7CA01582F5170F6
:103740005B833AC0E6E3F0E08081282F30E08A8195
:10375000882F90E0A90102C0559547958A95E2F718
:10376000CA01582F51705B8327C0E3E3F0E08081EA
:10377000282F30E08A81882F90E0A90102C055955A
:1037800047958A95E2F7CA01582F51705B8314C0A0
:10379000E0E3F0E08081282F30E08A81882F90E0FC
:1037A000A90102C0559547958A95E2F7CA01582F9D
:1037B00051705B8301C002C08B818E838E812696FF
:1037C0000FB6F894DEBF0FBECDBFCF91DF91089545
:1037D000DF93CF9300D000D00F92CDB7DEB78983AF
:1037E0007B836A838981282F30E03D832C838C8101
:1037F0009D818130910581F02C813D812230310500
:1038000091F08C819D810097A1F48A819B81909396
:103810000B0280930A020DC08A819B8190930D0256
:1038200080930C0206C08A819B8190930F02809343
:103830000E020F900F900F900F900F90CF91DF918D
:103840000895DF93CF93CDB7DEB78091FE0183302B
:1038500079F4A5E5B0E0E5E5F0E080818E7F8C931A
:10386000A5E5B0E0E5E5F0E080818D7F8C9342C076
:103870008091FE01843079F4A5E5B0E0E5E5F0E063
:10388000808181608C93A5E5B0E0E5E5F0E0808182
:103890008D7F8C932FC08091FE018130C9F483E02D
:1038A00062E040E00E94671883E062E041E00E942D
:1038B000A819A5E5B0E0E5E5F0E080818E7F8C9366
:1038C000A5E5B0E0E5E5F0E0808182608C9312C070
:1038D0008091FE01823071F4A5E5B0E0E5E5F0E00D
:1038E000808181608C93A5E5B0E0E5E5F0E0808122
:1038F00082608C938091FF01833079F4A5E5B0E07C
:10390000E5E5F0E080818B7F8C93A5E5B0E0E5E50F
:10391000F0E08081877F8C9342C08091FF018430EA
:1039200079F4A5E5B0E0E5E5F0E0808184608C9372
:10393000A5E5B0E0E5E5F0E08081877F8C932FC0BE
:103940008091FF018130C9F483E063E040E00E9490
:10395000671883E063E041E00E94A819A5E5B0E0A4
:10396000E5E5F0E080818B7F8C93A5E5B0E0E5E5AF
:10397000F0E0808188608C9312C08091FF018230DA
:1039800071F4A5E5B0E0E5E5F0E0808184608C931A
:10399000A5E5B0E0E5E5F0E0808188608C9380915A
:1039A0000002813091F481E062E040E00E946718FB
:1039B00081E062E041E00E94A819A4E5B0E0E4E5FE
:1039C000F0E080818F7B8C930BC08091000282306D
:1039D00039F4A4E5B0E0E4E5F0E0808180648C9304
:1039E000CF91DF910895DF93CF9300D00F92CDB7A1
:1039F000DEB789838981282F30E03B832A838A813F
:103A00009B818130910589F02A813B8122303105EB
:103A1000A1F08A819B810097B9F4ABE5B0E0EBE5BA
:103A2000F0E0808180648C930FC0ABE5B0E0EBE503
:103A3000F0E0808180688C9307C0ABE5B0E0EBE5F7
:103A4000F0E0808180628C930F900F900F90CF9167
:103A5000DF910895DF93CF9300D00F92CDB7DEB7FB
:103A600089838981282F30E03B832A838A819B8147
:103A70008130910589F02A813B8122303105A1F006
:103A80008A819B810097B9F4ABE5B0E0EBE5F0E00B
:103A900080818F7B8C930FC0ABE5B0E0EBE5F0E06D
:103AA00080818F778C9307C0ABE5B0E0EBE5F0E069
:103AB00080818F7D8C930F900F900F90CF91DF912D
:103AC00008951F920F920FB60F9211242F933F93D8
:103AD0004F935F936F937F938F939F93AF93BF9316
:103AE000EF93FF93DF93CF93CDB7DEB7E0910A0258
:103AF000F0910B020995CF91DF91FF91EF91BF916A
:103B0000AF919F918F917F916F915F914F913F9175
:103B10002F910F900FBE0F901F9018951F920F922C
:103B20000FB60F9211242F933F934F935F936F9390
:103B30007F938F939F93AF93BF93EF93FF93DF9305
:103B4000CF93CDB7DEB7E0910C02F0910D0209954D
:103B5000CF91DF91FF91EF91BF91AF919F918F91A5
:103B60007F916F915F914F913F912F910F900FBE79
:103B70000F901F9018951F920F920FB60F9211245D
:103B80002F933F934F935F936F937F938F939F9365
:103B9000AF93BF93EF93FF93DF93CF93CDB7DEB790
:103BA000E0910E02F0910F020995CF91DF91FF9104
:103BB000EF91BF91AF919F918F917F916F915F91A5
:103BC0004F913F912F910F900FBE0F901F9018951E
:103BD000DF93CF9300D000D0CDB7DEB789836A835F
:103BE0008A81282F30E03C832B838B819C8182301B
:103BF000910509F464C02B813C812330310534F4F4
:103C00008B819C818130910571F0CCC02B813C81EE
:103C10002330310509F481C08B819C81843091056A
:103C200009F49EC0BFC089818823C1F483E062E0AB
:103C300040E00E94671883E062E041E00E94A8191A
:103C4000A5E5B0E0E5E5F0E080818E7F8C93A5E509
:103C5000B0E0E5E5F0E0808182608C93898181307D
:103C6000C1F483E063E040E00E94671883E063E012
:103C700041E00E94A819A5E5B0E0E5E5F0E080810B
:103C80008B7F8C93A5E5B0E0E5E5F0E0808188606E
:103C90008C938981823009F085C081E062E040E048
:103CA0000E94671881E062E041E00E94A819A4E543
:103CB000B0E0E4E5F0E080818F7B8C9373C0898174
:103CC000882371F4A5E5B0E0E5E5F0E0808181604E
:103CD0008C93A5E5B0E0E5E5F0E0808182608C930F
:103CE0008981813071F4A5E5B0E0E5E5F0E08081FF
:103CF00084608C93A5E5B0E0E5E5F0E08081886024
:103D00008C938981823009F04DC0A4E5B0E0E4E5F0
:103D1000F0E0808180648C9345C08981882371F4B0
:103D2000A5E5B0E0E5E5F0E080818E7F8C93A5E528
:103D3000B0E0E5E5F0E080818D7F8C938981813072
:103D400089F5A5E5B0E0E5E5F0E080818B7F8C9317
:103D5000A5E5B0E0E5E5F0E08081877F8C9322C0A7
:103D60008981882371F4A5E5B0E0E5E5F0E0808184
:103D700081608C93A5E5B0E0E5E5F0E080818D7F82
:103D80008C938981813071F4A5E5B0E0E5E5F0E040
:103D9000808184608C93A5E5B0E0E5E5F0E080816A
:103DA000877F8C930F900F900F900F90CF91DF91A2
:103DB0000895DF93CF93CDB7DEB780911B028F5F5D
:103DC00080931B0282E00E942B20CF91DF91089507
:103DD000DF93CF93CDB7DEB70E942F170E944E26F8
:103DE0000E940C180E94EC240E94DF2F0E94F036E3
:103DF0000E9450300E940B240E94211C80E00E94EF
:103E0000F31C29ED3EE180E0B9010E94E81B80E04F
:103E100061E00E94E81D80E066E041E00E946718D2
:103E200080E066E040E00E94A81983E062E040E0A4
:103E30000E94671883E062E041E00E94A81983E0D5
:103E400065E041E00E94671883E063E041E00E9482
:103E5000671880E060E00E941A2F80E690E00E94E0
:103E60004D2B27EE33E282E0B9010E94A62F84E6B3
:103E700090E00E943134CF91DF910895DF93CF938A
:103E8000CDB7DEB787E00E9445172AE030E0B901E0
:103E90000E94193ACB01CF91DF910895DF93CF9320
:103EA000CDB7DEB780E060E00E941A2F80E790E097
:103EB0000E944D2B84E68093690281E00E942718BE
:103EC000809169020E942A3080E066E041E00E9411
:103ED000A81983E00E942B20CF91DF910895DF93F2
:103EE000CF930F92CDB7DEB7198280E00E942718DA
:103EF00089810E942A3080E066E040E00E94A81993
:103F000080E060E00E941A2F84E890E00E944D2B30
:103F100081E060E00E941A2F83E990E00E944D2B1F
:103F20000F90CF91DF910895DF93CF930F92CDB78C
:103F3000DEB789838981873230F00E944E1F81E08D
:103F40008093100209C080911002813029F40E94F0
:103F50006F1F82E0809310020F90CF91DF91089540
:103F6000DF93CF9300D0CDB7DEB78A838A818431C7
:103F700078F41092690280E00E942718809169020B
:103F80000E942A3080E066E040E00E94A81933C019
:103F90008A81843180F18A81863268F58A81843110
:103FA00038F08A81893120F489E18093690217C051
:103FB0008A81893138F08A818C3120F482E38093C0
:103FC00069020DC08A818C3138F08A81813220F4F7
:103FD0008BE48093690203C084E68093690281E0E8
:103FE0000E942718809169020E942A3080E066E0D2
:103FF00040E00E94A81981E089831DC00E943E1FF5
:104000008A838A810E94412184E68093690281E04B
:104010000E942718809169020E942A3080E066E0A1
:1040200041E00E94A8198981813029F483E00E942F
:104030002B2082E089838A81863200F78981823051
:1040400029F482E00E942B2081E089830F900F9059
:10405000CF91DF910895DF93CF93CDB7DEB76D9702
:104060000FB6F894DEBF0FBECDBF8D8F8D8D813022
:1040700009F07BC080E065E00E94482F80E090E07E
:10408000AAEFB4E4898F9A8FAB8FBC8F698D7A8D3C
:104090008B8D9C8D20E030E04AEF54E40E945A1151
:1040A000DC01CB018D8B9E8BAF8BB88F6D897E89A8
:1040B0008F89988D20E030E040E85FE30E94601334
:1040C00088232CF481E090E09C8B8B8B3FC06D8922
:1040D0007E898F89988D20E03FEF4FE757E40E945B
:1040E000001318164CF5698D7A8D8B8D9C8D20E010
:1040F00030E040E251E40E945A11DC01CB01BC01E6
:10410000CD010E94C301DC01CB019C8B8B8B0FC0C6
:1041100088EC90E09A8B898B89899A890197F1F7CD
:104120009A8B898B8B899C8901979C8B8B8B8B8934
:104130009C89009769F714C06D897E898F89988D55
:104140000E94C301DC01CB019C8B8B8B8B899C89EA
:10415000988B8F878F8598890197F1F7988B8F8738
:104160008AE565E00E94482F83C08D8D823009F07A
:104170007BC084EB65E00E94482F80E090E8ABE3D1
:10418000B5E48B879C87AD87BE876B857C858D85E5
:104190009E8520E030E04AEF54E40E945A11DC0191
:1041A000CB018F839887A987BA876F8178858985A6
:1041B0009A8520E030E040E85FE30E9460138823A6
:1041C0002CF481E090E09E838D833FC06F817885E1
:1041D00089859A8520E03FEF4FE757E40E9400135E
:1041E00018164CF56B857C858D859E8520E030E02A
:1041F00040E251E40E945A11DC01CB01BC01CD0127
:104200000E94C301DC01CB019E838D830FC088EC2B
:1042100090E09C838B838B819C810197F1F79C8339
:104220008B838D819E8101979E838D838D819E815D
:10423000009769F714C06F81788589859A850E94F7
:10424000C301DC01CB019E838D838D819E819A8386
:10425000898389819A810197F1F79A8389838AE515
:1042600065E00E94482F04C084EB65E00E94482F5F
:104270006D960FB6F894DEBF0FBECDBFCF91DF9124
:104280000895AF92BF92CF92DF92EF92FF920F9379
:104290001F93DF93CF930F92CDB7DEB7898380E072
:1042A00060E00E941A2F83EA90E00E944D2B8981E2
:1042B000A82EBB24CC24DD24EE24FF2487012A2D44
:1042C0003B2D4C2D5D2D6E2D7F2D802F912F0E942B
:1042D0007C2C83E40E94422A80E20E94422A0F90B2
:1042E000CF91DF911F910F91FF90EF90DF90CF90D2
:1042F000BF90AF900895DF93CF930F92CDB7DEB705
:10430000898389818823B9F080911602882F90E0F3
:10431000FC01EF5EFD4F898180839091160281E060
:10432000692F0E941A2F8AE20E94422A8091160267
:104330008F5F809316020F90CF91DF910895DF93E6
:10434000CF93CDB7DEB761970FB6F894DEBF0FBE3F
:10435000CDBF188A1F86809116028530D1F416C011
:104360008889882F90E0FC01EF5FFD4F20818889CC
:10437000882F90E0FC01EF5EFD4F8081281719F433
:104380008F858F5F8F8788898F5F888B888985303D
:1043900038F38F85853009F096C00E943E2F80E06B
:1043A00060E00E941A2F82EB90E00E944D2B81E08A
:1043B00060E00E941A2F8DEB90E00E944D2B10922E
:1043C000190280E090E0AAE7B4E48B879C87AD8770
:1043D000BE876B857C858D859E8520E030E04AEF29
:1043E00054E40E945A11DC01CB018F839887A9877E
:1043F000BA876F81788589859A8520E030E040E82A
:104400005FE30E94601388232CF481E090E09E8398
:104410008D833FC06F81788589859A8520E03FEF45
:104420004FE757E40E94001318164CF56B857C8506
:104430008D859E8520E030E040E251E40E945A11D3
:10444000DC01CB01BC01CD010E94C301DC01CB0129
:104450009E838D830FC088EC90E09C838B838B813F
:104460009C810197F1F79C838B838D819E810197BD
:104470009E838D838D819E81009769F714C06F8123
:10448000788589859A850E94C301DC01CB019E83D2
:104490008D838D819E819A83898389819A810197F9
:1044A000F1F79A8389830E943E2F109216021F868D
:1044B00080911C028F5F80931C0281E00E942B2060
:1044C00081E0898B01C0198A898961960FB6F894B9
:1044D000DEBF0FBECDBFCF91DF910895DF93CF93A5
:1044E000CDB7DEB76C970FB6F894DEBF0FBECDBF69
:1044F0000E943E2F80E060E00E941A2F88EC90E03E
:104500000E944D2B809119028F5F8093190280E0E9
:1045100090E0AAE7B4E4898F9A8FAB8FBC8F698D46
:104520007A8D8B8D9C8D20E030E04AEF54E40E9420
:104530005A11DC01CB018D8B9E8BAF8BB88F6D89AF
:104540007E898F89988D20E030E040E85FE30E940B
:10455000601388232CF481E090E09C8B8B8B3FC010
:104560006D897E898F89988D20E03FEF4FE757E472
:104570000E94001318164CF5698D7A8D8B8D9C8DD9
:1045800020E030E040E251E40E945A11DC01CB010E
:10459000BC01CD010E94C301DC01CB019C8B8B8B44
:1045A0000FC088EC90E09A8B898B89899A89019752
:1045B000F1F79A8B898B8B899C8901979C8B8B8BCC
:1045C0008B899C89009769F714C06D897E898F89D2
:1045D000988D0E94C301DC01CB019C8B8B8B8B8956
:1045E0009C89988B8F878F8598890197F1F7988B95
:1045F0008F8780911902833009F07EC00E943E2F80
:1046000080E060E00E941A2F85ED90E00E944D2B23
:1046100080E090E8ABE3B5E48B879C87AD87BE87ED
:104620006B857C858D859E8520E030E04AEF54E4E3
:104630000E945A11DC01CB018F839887A987BA8722
:104640006F81788589859A8520E030E040E85FE3D6
:104650000E94601388232CF481E090E09E838D8378
:104660003FC06F81788589859A8520E03FEF4FE7CD
:1046700057E40E94001318164CF56B857C858D85D8
:104680009E8520E030E040E251E40E945A11DC01B6
:10469000CB01BC01CD010E94C301DC01CB019E8393
:1046A0008D830FC088EC90E09C838B838B819C81F1
:1046B0000197F1F79C838B838D819E8101979E8367
:1046C0008D838D819E81009769F714C06F817885F5
:1046D00089859A850E94C301DC01CB019E838D836D
:1046E0008D819E819A83898389819A810197F1F7CF
:1046F0009A838983109219020E943E2F80E060E025
:104700000E941A2F84EE90E00E944D2B1092160208
:10471000109217026C960FB6F894DEBF0FBECDBF95
:10472000CF91DF910895DF93CF93CDB7DEB790910E
:104730001C0280911B02292F281B822FCF91DF9111
:1047400008950F931F93DF93CF9300D0CDB7DEB7BB
:10475000198233C08981082F10E00E942724F801B4
:10476000E35EFD4F808314C08981082F10E00E9412
:104770002724F801E35EFD4F8083809118028F5F4C
:104780008093180280911802882311F40E94E72375
:104790008981882F90E0FC01E35EFD4F80818233A8
:1047A00019F38981882F90E0FC01E35EFD4F808141
:1047B0000E947B2189818F5F89838981853050F2B6
:1047C0000F900F90CF91DF911F910F910895DF937C
:1047D000CF93CDB7DEB780916702882321F4809113
:1047E00068028823A9F00E943E1F80936602809190
:1047F00066020E94B01F809166020E94941F809101
:1048000066020E94412183E063E041E00E94A81912
:10481000CF91DF910895DF93CF93CDB7DEB7AFE5AA
:10482000B0E0EFE5F0E0808180688C93CF91DF917C
:104830000895DF93CF93CDB7DEB7AFE5B0E0EFE5F6
:10484000F0E080818F778C93CF91DF910895DF9393
:10485000CF93CDB7DEB762970FB6F894DEBF0FBE29
:10486000CDBF82E38A8B84E0888BA8C081E0688911
:1048700040E00E94A81982E08F8794C080E06F8595
:104880000E94661B898B8989882309F088C08F85DF
:10489000882F90E00297880F991F880F991F982FF3
:1048A0008889890F83508A8B05C080E06F850E94BC
:1048B000661B898B89898823C1F380E090E0A0EA98
:1048C000B0E48B879C87AD87BE876B857C858D85A3
:1048D0009E8520E030E04AEF54E40E945A11DC014A
:1048E000CB018F839887A987BA876F81788589855F
:1048F0009A8520E030E040E85FE30E94601388235F
:104900002CF481E090E09E838D833FC06F81788599
:1049100089859A8520E03FEF4FE757E40E94001316
:1049200018164CF56B857C858D859E8520E030E0E2
:1049300040E251E40E945A11DC01CB01BC01CD01DF
:104940000E94C301DC01CB019E838D830FC088ECE4
:1049500090E09C838B838B819C810197F1F79C83F2
:104960008B838D819E8101979E838D838D819E8116
:10497000009769F714C06F81788589859A850E94B0
:10498000C301DC01CB019E838D838D819E819A833F
:10499000898389819A810197F1F79A8389838F8529
:1049A0008F5F8F878F85863008F468CF81E06889B4
:1049B00041E00E94A81988898F5F888B8889883098
:1049C00008F454CF8A8962960FB6F894DEBF0FBE02
:1049D000CDBFCF91DF910895DF93CF93CDB7DEB7F1
:1049E00080E062E040E00E94671880E063E040E021
:1049F0000E94671880E064E040E00E94671880E051
:104A000065E040E00E94671881E064E041E00E94B8
:104A1000671881E065E041E00E94671881E066E088
:104A200041E00E94671881E067E041E00E9467185A
:104A300080E062E041E00E94A81980E063E041E08C
:104A40000E94A81980E064E041E00E94A81980E07B
:104A500065E041E00E94A81981E064E041E00E9425
:104A6000A81981E065E041E00E94A81981E066E0B4
:104A700041E00E94A81981E067E041E00E94A81986
:104A8000CF91DF910895DF93CF93CDB7DEB76D97C8
:104A90000FB6F894DEBF0FBECDBF8D8F80E060E013
:104AA00040E00E94A81982E06D8D0E94A81A80E063
:104AB00061E041E00E94A81980E090E0A0E8BFE337
:104AC000898F9A8FAB8FBC8F698D7A8D8B8D9C8DE2
:104AD00020E030E04AEF54E40E945A11DC01CB019F
:104AE0008D8B9E8BAF8BB88F6D897E898F89988DCA
:104AF00020E030E040E85FE30E94601388232CF45C
:104B000081E090E09C8B8B8B3FC06D897E898F8983
:104B1000988D20E03FEF4FE757E40E9400131816EE
:104B20004CF5698D7A8D8B8D9C8D20E030E040E2D4
:104B300051E40E945A11DC01CB01BC01CD010E945D
:104B4000C301DC01CB019C8B8B8B0FC088EC90E008
:104B50009A8B898B89899A890197F1F79A8B898B2E
:104B60008B899C8901979C8B8B8B8B899C89009767
:104B700069F714C06D897E898F89988D0E94C30161
:104B8000DC01CB019C8B8B8B8B899C89988B8F87CD
:104B90008F8598890197F1F7988B8F8780E061E086
:104BA00040E00E94A81980E090E0A0E0B0E48B878C
:104BB0009C87AD87BE876B857C858D859E8520E033
:104BC00030E04AEF54E40E945A11DC01CB018F839C
:104BD0009887A987BA876F81788589859A8520E02B
:104BE00030E040E85FE30E94601388232CF481E00A
:104BF00090E09E838D833FC06F81788589859A85FB
:104C000020E03FEF4FE757E40E94001318164CF5E1
:104C10006B857C858D859E8520E030E040E251E407
:104C20000E945A11DC01CB01BC01CD010E94C301DD
:104C3000DC01CB019E838D830FC088EC90E09C83C8
:104C40008B838B819C810197F1F79C838B838D8172
:104C50009E8101979E838D838D819E81009769F748
:104C600014C06F81788589859A850E94C301DC0113
:104C7000CB019E838D838D819E819A8389838981D7
:104C80009A810197F1F79A8389836D960FB6F8940C
:104C9000DEBF0FBECDBFCF91DF9108950F931F935D
:104CA000DF93CF93CDB7DEB7C456D0400FB6F8949C
:104CB000DEBF0FBECDBF80E060E041E00E9467181C
:104CC00080E061E041E00E94671882E06FEF0E949F
:104CD0006719FE01EF59FF4F80E090E0A0E2B2E4D7
:104CE00080839183A283B3838E01035A1F4FFE01F9
:104CF000EF59FF4F608171818281938120E030E024
:104D00004AEF54E40E945A11DC01CB01F801808380
:104D10009183A283B383FE01E35AFF4F60817181C7
:104D20008281938120E030E040E85FE30E946013DD
:104D3000882344F4FE01E55AFF4F81E090E091831F
:104D4000808364C0FE01E35AFF4F608171818281DC
:104D5000938120E03FEF4FE757E40E9400131816BD
:104D60000CF043C0FE01EF59FF4F608171818281D9
:104D7000938120E030E040E251E40E945A11DC01CE
:104D8000CB018E01055A1F4FBC01CD010E94C3010A
:104D9000DC01CB01F801918380831FC0FE01E75A3B
:104DA000FF4F88EC90E091838083FE01E75AFF4F2C
:104DB000808191810197F1F7FE01E75AFF4F9183BE
:104DC0008083DE01A55ABF4FFE01E55AFF4F808167
:104DD0009181019711969C938E93FE01E55AFF4FA6
:104DE000808191810097D1F627C08E01055A1F4F0F
:104DF000FE01E35AFF4F60817181828193810E949D
:104E0000C301DC01CB01F80191838083DE01A95A43
:104E1000BF4FFE01E55AFF4F808191818D939C9396
:104E2000FE01E95AFF4F808191810197F1F7FE0160
:104E3000E95AFF4F918380838CE30E944325FE0152
:104E4000ED5AFF4F80E090E0A0E2B2E480839183CE
:104E5000A283B3838E01015B1F4FFE01ED5AFF4F0A
:104E600060817181828193812BEA3AEA4AE250E4BF
:104E70000E945A11DC01CB01F80180839183A28347
:104E8000B383FE01E15BFF4F608171818281938179
:104E900020E030E040E85FE30E946013882334F4B0
:104EA000FE01E25BFF4F81E08083E0C0FE01E15B39
:104EB000FF4F608171818281938120E030E04FE774
:104EC00053E40E94001318160CF0C0C0FE01ED5A06
:104ED000FF4F608171818281938120E030E04AE759
:104EE00054E40E945412DC01CB01FE01E65BFF4F4B
:104EF00080839183A283B3838E010A5B1F4FFE01DF
:104F0000E65BFF4F608171818281938120E030E018
:104F10004AEF54E40E945A11DC01CB01F80180836E
:104F20009183A283B383FE01EA5BFF4F60817181AD
:104F30008281938120E030E040E85FE30E946013CB
:104F4000882344F4FE01EC5BFF4F81E090E0918305
:104F5000808364C0FE01EA5BFF4F608171818281C2
:104F6000938120E03FEF4FE757E40E9400131816AB
:104F70000CF043C0FE01E65BFF4F608171818281CE
:104F8000938120E030E040E251E40E945A11DC01BC
:104F9000CB018E010C5B1F4FBC01CD010E94C301F0
:104FA000DC01CB01F801918380831FC0FE01EE5B21
:104FB000FF4F88EC90E091838083FE01EE5BFF4F12
:104FC000808191810197F1F7FE01EE5BFF4F9183A4
:104FD0008083DE01AC5BBF4FFE01EC5BFF4F808145
:104FE0009181019711969C938E93FE01EC5BFF4F8C
:104FF000808191810097D1F642C08E010C5B1F4FDA
:10500000FE01EA5BFF4F60817181828193810E9482
:10501000C301DC01CB01F80191838083DE01A05C38
:10502000BF4FFE01EC5BFF4F8081918111969C93F5
:105030008E93FE01E05CFF4F808191810197F1F733
:10504000FE01E05CFF4F9183808319C08E01025BFB
:105050001F4FFE01E15BFF4F60817181828193816F
:105060000E94C301DC01CB01F8018083FE01E25BF9
:10507000FF4F80818FAF8FAD8A95F1F78FAF8CE0B6
:105080000E94432580E090E0A0E2B2E48BAF9CAFA9
:10509000ADAFBEAF6BAD7CAD8DAD9EAD2BEA3AEA48
:1050A0004AE250E40E945A11DC01CB018FAB98AF69
:1050B000A9AFBAAF6FA978AD89AD9AAD20E030E065
:1050C00040E85FE30E94601388231CF481E08EAB0C
:1050D00091C06FA978AD89AD9AAD20E030E04FE77F
:1050E00053E40E94001318160CF07BC06BAD7CAD2E
:1050F0008DAD9EAD20E030E04AE754E40E945412AA
:10510000DC01CB018AAB9BABACABBDAB6AA97BA985
:105110008CA99DA920E030E04AEF54E40E945A1186
:10512000DC01CB018EA79FA7A8ABB9AB6EA57FA56D
:1051300088A999A920E030E040E85FE30E9460136D
:1051400088232CF481E090E09DA78CA73FC06EA53A
:105150007FA588A999A920E03FEF4FE757E40E9477
:10516000001318164CF56AA97BA98CA99DA920E00B
:1051700030E040E251E40E945A11DC01CB01BC0155
:10518000CD010E94C301DC01CB019DA78CA70FC0FC
:1051900088EC90E09BA78AA78AA59BA50197F1F7C9
:1051A0009BA78AA78CA59DA501979DA78CA78CA5D9
:1051B0009DA5009769F724C06EA57FA588A999A928
:1051C0000E94C301DC01CB019DA78CA78CA59DA5E6
:1051D00099A788A788A599A50197F1F799A788A706
:1051E0000FC06FA978AD89AD9AAD0E94C301DC01F3
:1051F000CB018EAB8EA98FA38FA18A95F1F78FA3D8
:1052000086E00E94432580E090E0A0E2B2E48BA318
:105210009CA3ADA3BEA36BA17CA18DA19EA12BEAF3
:105220003AEA4AE250E40E945A11DC01CB018F8F26
:1052300098A3A9A3BAA36F8D78A189A19AA120E010
:1052400030E040E85FE30E94601388231CF481E0B3
:105250008E8F91C06F8D78A189A19AA120E030E056
:105260004FE753E40E94001318160CF07BC06BA1AB
:105270007CA18DA19EA120E030E04AE754E40E9489
:105280005412DC01CB018A8F9B8FAC8FBD8F6A8D4E
:105290007B8D8C8D9D8D20E030E04AEF54E40E94A0
:1052A0005A11DC01CB018E8B9F8BA88FB98F6E8931
:1052B0007F89888D998D20E030E040E85FE30E948F
:1052C000601388232CF481E090E09D8B8C8B3FC091
:1052D0006E897F89888D998D20E03FEF4FE757E4F5
:1052E0000E94001318164CF56A8D7B8D8C8D9D8D58
:1052F00020E030E040E251E40E945A11DC01CB0191
:10530000BC01CD010E94C301DC01CB019D8B8C8BC4
:105310000FC088EC90E09B8B8A8B8A899B890197D0
:10532000F1F79B8B8A8B8C899D8901979D8B8C8B48
:105330008C899D89009769F724C06E897F89888D43
:10534000998D0E94C301DC01CB019D8B8C8B8C89D4
:105350009D89998B888B888999890197F1F7998B19
:10536000888B0FC06F8D78A189A19AA10E94C3017B
:10537000DC01CB018E8F8E8D8F878F858A95F1F71B
:105380008F8781E00E94432580E090E0A0E0B0E4B8
:105390008B879C87AD87BE876B857C858D859E8539
:1053A00020E030E04AEF54E40E945A11DC01CB01C6
:1053B0008F839887A987BA876F81788589859A8531
:1053C00020E030E040E85FE30E94601388232CF483
:1053D00081E090E09E838D833FC06F8178858985D1
:1053E0009A8520E03FEF4FE757E40E94001318161C
:1053F0004CF56B857C858D859E8520E030E040E214
:1054000051E40E945A11DC01CB01BC01CD010E9484
:10541000C301DC01CB019E838D830FC088EC90E03B
:105420009C838B838B819C810197F1F79C838B8379
:105430008D819E8101979E838D838D819E810097B2
:1054400069F714C06F81788589859A850E94C301A8
:10545000DC01CB019E838D838D819E819A8389831C
:1054600089819A810197F1F79A838983CC59DF4F1B
:105470000FB6F894DEBF0FBECDBFCF91DF911F9165
:105480000F910895DF93CF93CDB7DEB76D970FB629
:10549000F894DEBF0FBECDBF8D8F80E060E041E0AD
:1054A0000E94A81982E06D8D0E94A81A80E061E038
:1054B00041E00E94A81980E090E0A0E8BFE3898F56
:1054C0009A8FAB8FBC8F698D7A8D8B8D9C8D20E0F0
:1054D00030E04AEF54E40E945A11DC01CB018D8B7D
:1054E0009E8BAF8BB88F6D897E898F89988D20E0D8
:1054F00030E040E85FE30E94601388232CF481E0F1
:1055000090E09C8B8B8B3FC06D897E898F89988DB5
:1055100020E03FEF4FE757E40E94001318164CF5C8
:10552000698D7A8D8B8D9C8D20E030E040E251E4D6
:105530000E945A11DC01CB01BC01CD010E94C301C4
:10554000DC01CB019C8B8B8B0FC088EC90E09A8B9D
:10555000898B89899A890197F1F79A8B898B8B8935
:105560009C8901979C8B8B8B8B899C89009769F711
:1055700014C06D897E898F89988D0E94C301DC01DA
:10558000CB019C8B8B8B8B899C89988B8F878F858C
:1055900098890197F1F7988B8F8780E061E040E070
:1055A0000E94A81980E090E0A0E0B0E48B879C877F
:1055B000AD87BE876B857C858D859E8520E030E03C
:1055C0004AEF54E40E945A11DC01CB018F83988783
:1055D000A987BA876F81788589859A8520E030E030
:1055E00040E85FE30E94601388232CF481E090E0A0
:1055F0009E838D833FC06F81788589859A8520E061
:105600003FEF4FE757E40E94001318164CF56B85E7
:105610007C858D859E8520E030E040E251E40E944B
:105620005A11DC01CB01BC01CD010E94C301DC0198
:10563000CB019E838D830FC088EC90E09C838B838D
:105640008B819C810197F1F79C838B838D819E8157
:1056500001979E838D838D819E81009769F714C089
:105660006F81788589859A850E94C301DC01CB0111
:105670009E838D838D819E819A83898389819A817E
:105680000197F1F79A8389836D960FB6F894DEBF80
:105690000FBECDBFCF91DF910895DF93CF93CDB7EC
:1056A000DEB76B970FB6F894DEBF0FBECDBF9B8FF2
:1056B0008A8F198ED2C0898D8F3019F480EC0E94A8
:1056C0004325898D282F30E08A8D9B8DFC01E20FC8
:1056D000F31F80810E94422A80E090E0A0E8BFE3AF
:1056E0008D8B9E8BAF8BB88F6D897E898F89988DBE
:1056F0002BEA3AEA4AE250E40E945A11DC01CB015B
:10570000898B9A8BAB8BBC8B69897A898B899C89B5
:1057100020E030E040E85FE30E94601388231CF43F
:1057200081E0888B91C069897A898B899C8920E086
:1057300030E04FE753E40E94001318160CF07BC0D2
:105740006D897E898F89988D20E030E04AE754E4A6
:105750000E945412DC01CB018C879D87AE87BF87E6
:105760006C857D858E859F8520E030E04AEF54E48E
:105770000E945A11DC01CB0188879987AA87BB87D1
:10578000688579858A859B8520E030E040E85FE385
:105790000E94601388232CF481E090E09F838E8325
:1057A0003FC0688579858A859B8520E03FEF4FE77C
:1057B00057E40E94001318164CF56C857D858E8584
:1057C0009F8520E030E040E251E40E945A11DC0164
:1057D000CB01BC01CD010E94C301DC01CB019F8341
:1057E0008E830FC088EC90E09D838C838C819D819B
:1057F0000197F1F79D838C838E819F8101979F8311
:105800008E838E819F81009769F724C06885798592
:105810008A859B850E94C301DC01CB019F838E8317
:105820008E819F819B838A838A819B810197F1F777
:105830009B838A830FC069897A898B899C890E949E
:10584000C301DC01CB01888B8889898389818A9592
:10585000F1F78983898D8F5F898F898D282F30E0BB
:105860008A8D9B8DFC01E20FF31F8081882309F054
:1058700022CF6B960FB6F894DEBF0FBECDBFCF918F
:10588000DF910895DF93CF9300D000D000D0CDB743
:10589000DEB78D836E8381E090E0A0E0B0E0898385
:1058A0009A83AB83BC8316C08D81282F30E040E003
:1058B00050E089819A81AB81BC81BC01CD010E94FD
:1058C000FA39DC01CB0189839A83AB83BC838E8157
:1058D00081508E838E81882339F789819A81AB81AB
:1058E000BC81BC01CD0126960FB6F894DEBF0FBE79
:1058F000CDBFCF91DF9108952F923F924F925F924B
:105900006F927F928F929F92AF92BF92CF92DF92CF
:10591000EF92FF920F931F93DF93CF93CDB7DEB734
:10592000C554D0400FB6F894DEBF0FBECDBF2B8755
:105930003C874D875E876F87788B898B9A8B1B821C
:105940001C821D821E821F82188619861A861A8260
:105950008B859C85892B9D85892B9E85892B9F8591
:10596000892B9889892B9989892B9A89892B882356
:1059700039F480E30E94422A43C28A818F5F8A837E
:105980008AE06A810E94422CDC01CB011C012D01BE
:105990006624772443012B853C854D855E856F8584
:1059A000788989899A89A22CB32CC42CD52CE62C11
:1059B000F72C082D192D0E94CB02A22EB32EC42E37
:1059C000D52EE62EF72E082F192F2A2D3B2D4C2DE4
:1059D0005D2D6E2D7F2D802F912FE22FE32BE42B59
:1059E000E52BE62BE72BE82BE92BEE2331F68A811A
:1059F000815089839BC1AB84BC84CD84DE84EF84D9
:105A0000F88809891A892A2D3B2D4C2D5D2D6E2D84
:105A10007F2D802F912F0F2EFAE0AF2EF02DBB247B
:105A2000CC24DD24EE24FF2400E010E00E94400995
:105A3000A22EB32EC42ED52EE62EF72E082F192F08
:105A40002A2C3B2C4C2C5D2C6E2C7F2C802E912EE6
:105A500099818AE0692F0E94422CDC01CB018C01E4
:105A60009D0140E050E060E070E00B8F1C8F2D8FB7
:105A70003E8F4F8F58A369A37AA3222D332D442D37
:105A8000552D662D772D882D992DAB8CBC8CCD8C0A
:105A9000DE8CEF8CF8A009A11AA10E944900A22E69
:105AA000B32EC42ED52EE62EF72E082F192FAB8A33
:105AB000BC8ACD8ADE8AEF8AF88E098F1A8F1B8105
:105AC0001BA32C812CA33D813DA34E814EA35F815E
:105AD0005FA3688568A7798579A78A858AA79BA12E
